{
  "_format": "hh-sol-artifact-1",
  "contractName": "Escrow",
  "sourceName": "contracts/Escrow.sol",
  "abi": [
    {
      "inputs": [],
      "stateMutability": "nonpayable",
      "type": "constructor"
    },
    {
      "anonymous": false,
      "inputs": [
        {
          "indexed": true,
          "internalType": "address",
          "name": "seller",
          "type": "address"
        },
        {
          "indexed": true,
          "internalType": "address",
          "name": "arbiter",
          "type": "address"
        }
      ],
      "name": "EscrowSet",
      "type": "event"
    },
    {
      "anonymous": false,
      "inputs": [
        {
          "indexed": true,
          "internalType": "address",
          "name": "buyer",
          "type": "address"
        },
        {
          "indexed": false,
          "internalType": "uint256",
          "name": "amount",
          "type": "uint256"
        }
      ],
      "name": "Funded",
      "type": "event"
    },
    {
      "anonymous": false,
      "inputs": [
        {
          "indexed": true,
          "internalType": "address",
          "name": "to",
          "type": "address"
        },
        {
          "indexed": false,
          "internalType": "uint256",
          "name": "amount",
          "type": "uint256"
        }
      ],
      "name": "Refunded",
      "type": "event"
    },
    {
      "anonymous": false,
      "inputs": [
        {
          "indexed": true,
          "internalType": "address",
          "name": "to",
          "type": "address"
        },
        {
          "indexed": false,
          "internalType": "uint256",
          "name": "amount",
          "type": "uint256"
        }
      ],
      "name": "Released",
      "type": "event"
    },
    {
      "anonymous": false,
      "inputs": [
        {
          "indexed": false,
          "internalType": "address",
          "name": "oldBuyer",
          "type": "address"
        },
        {
          "indexed": false,
          "internalType": "uint256",
          "name": "timestamp",
          "type": "uint256"
        }
      ],
      "name": "SessionReset",
      "type": "event"
    },
    {
      "stateMutability": "payable",
      "type": "fallback"
    },
    {
      "inputs": [],
      "name": "amount",
      "outputs": [
        {
          "internalType": "uint256",
          "name": "",
          "type": "uint256"
        }
      ],
      "stateMutability": "view",
      "type": "function"
    },
    {
      "inputs": [],
      "name": "arbiter",
      "outputs": [
        {
          "internalType": "address",
          "name": "",
          "type": "address"
        }
      ],
      "stateMutability": "view",
      "type": "function"
    },
    {
      "inputs": [],
      "name": "buyer",
      "outputs": [
        {
          "internalType": "address",
          "name": "",
          "type": "address"
        }
      ],
      "stateMutability": "view",
      "type": "function"
    },
    {
      "inputs": [],
      "name": "currentState",
      "outputs": [
        {
          "internalType": "enum Escrow.State",
          "name": "",
          "type": "uint8"
        }
      ],
      "stateMutability": "view",
      "type": "function"
    },
    {
      "inputs": [],
      "name": "deposit",
      "outputs": [],
      "stateMutability": "payable",
      "type": "function"
    },
    {
      "inputs": [],
      "name": "refund",
      "outputs": [],
      "stateMutability": "nonpayable",
      "type": "function"
    },
    {
      "inputs": [],
      "name": "release",
      "outputs": [],
      "stateMutability": "nonpayable",
      "type": "function"
    },
    {
      "inputs": [],
      "name": "seller",
      "outputs": [
        {
          "internalType": "address",
          "name": "",
          "type": "address"
        }
      ],
      "stateMutability": "view",
      "type": "function"
    },
    {
      "inputs": [
        {
          "internalType": "address",
          "name": "_seller",
          "type": "address"
        },
        {
          "internalType": "address",
          "name": "_arbiter",
          "type": "address"
        }
      ],
      "name": "setupEscrow",
      "outputs": [],
      "stateMutability": "nonpayable",
      "type": "function"
    },
    {
      "stateMutability": "payable",
      "type": "receive"
    }
  ],
  "bytecode": "0x60806040526001600460016101000a81548160ff021916908360ff160217905550348015602b57600080fd5b506000600460006101000a81548160ff02191690836001811115604f57604e6058565b5b02179055506087565b7f4e487b7100000000000000000000000000000000000000000000000000000000600052602160045260246000fd5b611808806100966000396000f3fe60806040526004361061008a5760003560e01c8063739af72911610059578063739af7291461019d57806386d1a69f146101c6578063aa8c217c146101dd578063d0e30db014610208578063fe25e00a14610212576100ca565b806308551a53146101055780630c3f6acf14610130578063590e1ae31461015b5780637150d8ae14610172576100ca565b366100ca576040517f08c379a00000000000000000000000000000000000000000000000000000000081526004016100c1906110a0565b60405180910390fd5b6040517f08c379a00000000000000000000000000000000000000000000000000000000081526004016100fc906110a0565b60405180910390fd5b34801561011157600080fd5b5061011a61023d565b6040516101279190611101565b60405180910390f35b34801561013c57600080fd5b50610145610263565b6040516101529190611193565b60405180910390f35b34801561016757600080fd5b50610170610276565b005b34801561017e57600080fd5b506101876105fe565b6040516101949190611101565b60405180910390f35b3480156101a957600080fd5b506101c460048036038101906101bf91906111df565b610622565b005b3480156101d257600080fd5b506101db6107c0565b005b3480156101e957600080fd5b506101f2610b49565b6040516101ff9190611238565b60405180910390f35b610210610b4f565b005b34801561021e57600080fd5b50610227610eca565b6040516102349190611101565b60405180910390f35b600160009054906101000a900473ffffffffffffffffffffffffffffffffffffffff1681565b600460009054906101000a900460ff1681565b600160009054906101000a900473ffffffffffffffffffffffffffffffffffffffff1673ffffffffffffffffffffffffffffffffffffffff163373ffffffffffffffffffffffffffffffffffffffff16148061031f5750600260009054906101000a900473ffffffffffffffffffffffffffffffffffffffff1673ffffffffffffffffffffffffffffffffffffffff163373ffffffffffffffffffffffffffffffffffffffff16145b61035e576040517f08c379a00000000000000000000000000000000000000000000000000000000081526004016103559061129f565b60405180910390fd5b60018060018111156103735761037261111c565b5b600460009054906101000a900460ff1660018111156103955761039461111c565b5b146103d5576040517f08c379a00000000000000000000000000000000000000000000000000000000081526004016103cc9061130b565b60405180910390fd5b6001600460019054906101000a900460ff1660ff161461042a576040517f08c379a000000000000000000000000000000000000000000000000000000000815260040161042190611377565b60405180910390fd5b6000600460016101000a81548160ff021916908360ff16021790555060006003541161048b576040517f08c379a0000000000000000000000000000000000000000000000000000000008152600401610482906113e3565b60405180910390fd5b60006003549050600060038190555060008060009054906101000a900473ffffffffffffffffffffffffffffffffffffffff1673ffffffffffffffffffffffffffffffffffffffff16826040516104e190611434565b60006040518083038185875af1925050503d806000811461051e576040519150601f19603f3d011682016040523d82523d6000602084013e610523565b606091505b5050905080610567576040517f08c379a000000000000000000000000000000000000000000000000000000000815260040161055e90611495565b60405180910390fd5b60008054906101000a900473ffffffffffffffffffffffffffffffffffffffff1673ffffffffffffffffffffffffffffffffffffffff167fd7dee2702d63ad89917b6a4da9981c90c4d24f8c2bdfd64c604ecae57d8d0651836040516105cd9190611238565b60405180910390a26105dd610ef0565b50506001600460016101000a81548160ff021916908360ff16021790555050565b60008054906101000a900473ffffffffffffffffffffffffffffffffffffffff1681565b600060018111156106365761063561111c565b5b600460009054906101000a900460ff1660018111156106585761065761111c565b5b14610698576040517f08c379a000000000000000000000000000000000000000000000000000000000815260040161068f90611501565b60405180910390fd5b81600160006101000a81548173ffffffffffffffffffffffffffffffffffffffff021916908373ffffffffffffffffffffffffffffffffffffffff16021790555080600260006101000a81548173ffffffffffffffffffffffffffffffffffffffff021916908373ffffffffffffffffffffffffffffffffffffffff160217905550336000806101000a81548173ffffffffffffffffffffffffffffffffffffffff021916908373ffffffffffffffffffffffffffffffffffffffff16021790555060006003819055508073ffffffffffffffffffffffffffffffffffffffff168273ffffffffffffffffffffffffffffffffffffffff167faac2860f036b29137b30bdef09434a5a3e16c438ed91e960948ec25cedd962d360405160405180910390a35050565b60008054906101000a900473ffffffffffffffffffffffffffffffffffffffff1673ffffffffffffffffffffffffffffffffffffffff163373ffffffffffffffffffffffffffffffffffffffff1614806108675750600260009054906101000a900473ffffffffffffffffffffffffffffffffffffffff1673ffffffffffffffffffffffffffffffffffffffff163373ffffffffffffffffffffffffffffffffffffffff16145b6108a6576040517f08c379a000000000000000000000000000000000000000000000000000000000815260040161089d9061156d565b60405180910390fd5b60018060018111156108bb576108ba61111c565b5b600460009054906101000a900460ff1660018111156108dd576108dc61111c565b5b1461091d576040517f08c379a00000000000000000000000000000000000000000000000000000000081526004016109149061130b565b60405180910390fd5b6001600460019054906101000a900460ff1660ff1614610972576040517f08c379a000000000000000000000000000000000000000000000000000000000815260040161096990611377565b60405180910390fd5b6000600460016101000a81548160ff021916908360ff1602179055506000600354116109d3576040517f08c379a00000000000000000000000000000000000000000000000000000000081526004016109ca906113e3565b60405180910390fd5b6000600354905060006003819055506000600160009054906101000a900473ffffffffffffffffffffffffffffffffffffffff1673ffffffffffffffffffffffffffffffffffffffff1682604051610a2a90611434565b60006040518083038185875af1925050503d8060008114610a67576040519150601f19603f3d011682016040523d82523d6000602084013e610a6c565b606091505b5050905080610ab0576040517f08c379a0000000000000000000000000000000000000000000000000000000008152600401610aa7906115d9565b60405180910390fd5b600160009054906101000a900473ffffffffffffffffffffffffffffffffffffffff1673ffffffffffffffffffffffffffffffffffffffff167fb21fb52d5749b80f3182f8c6992236b5e5576681880914484d7f4c9b062e619e83604051610b189190611238565b60405180910390a2610b28610ef0565b50506001600460016101000a81548160ff021916908360ff16021790555050565b60035481565b6000806001811115610b6457610b6361111c565b5b600460009054906101000a900460ff166001811115610b8657610b8561111c565b5b14610bc6576040517f08c379a0000000000000000000000000000000000000000000000000000000008152600401610bbd9061130b565b60405180910390fd5b6001600460019054906101000a900460ff1660ff1614610c1b576040517f08c379a0000000000000000000000000000000000000000000000000000000008152600401610c1290611377565b60405180910390fd5b6000600460016101000a81548160ff021916908360ff16021790555060003411610c7a576040517f08c379a0000000000000000000000000000000000000000000000000000000008152600401610c7190611645565b60405180910390fd5b600073ffffffffffffffffffffffffffffffffffffffff1660008054906101000a900473ffffffffffffffffffffffffffffffffffffffff1673ffffffffffffffffffffffffffffffffffffffff1603610d09576040517f08c379a0000000000000000000000000000000000000000000000000000000008152600401610d00906116b1565b60405180910390fd5b600073ffffffffffffffffffffffffffffffffffffffff16600160009054906101000a900473ffffffffffffffffffffffffffffffffffffffff1673ffffffffffffffffffffffffffffffffffffffff1603610d9a576040517f08c379a0000000000000000000000000000000000000000000000000000000008152600401610d919061171d565b60405180910390fd5b600073ffffffffffffffffffffffffffffffffffffffff16600260009054906101000a900473ffffffffffffffffffffffffffffffffffffffff1673ffffffffffffffffffffffffffffffffffffffff1603610e2b576040517f08c379a0000000000000000000000000000000000000000000000000000000008152600401610e2290611789565b60405180910390fd5b346003819055506001600460006101000a81548160ff02191690836001811115610e5857610e5761111c565b5b02179055503373ffffffffffffffffffffffffffffffffffffffff167f5af8184bef8e4b45eb9f6ed7734d04da38ced226495548f46e0c8ff8d7d9a52434604051610ea39190611238565b60405180910390a26001600460016101000a81548160ff021916908360ff16021790555050565b600260009054906101000a900473ffffffffffffffffffffffffffffffffffffffff1681565b7fc3e2f05a6a17520f15c9b45c7982d2c23f8589b3229e8f3ecbd847500c5fee9760008054906101000a900473ffffffffffffffffffffffffffffffffffffffff1642604051610f419291906117a9565b60405180910390a160008060006101000a81548173ffffffffffffffffffffffffffffffffffffffff021916908373ffffffffffffffffffffffffffffffffffffffff1602179055506000600160006101000a81548173ffffffffffffffffffffffffffffffffffffffff021916908373ffffffffffffffffffffffffffffffffffffffff1602179055506000600260006101000a81548173ffffffffffffffffffffffffffffffffffffffff021916908373ffffffffffffffffffffffffffffffffffffffff1602179055506000600460006101000a81548160ff021916908360018111156110345761103361111c565b5b02179055506000600381905550565b600082825260208201905092915050565b7f557365206465706f736974282900000000000000000000000000000000000000600082015250565b600061108a600d83611043565b915061109582611054565b602082019050919050565b600060208201905081810360008301526110b98161107d565b9050919050565b600073ffffffffffffffffffffffffffffffffffffffff82169050919050565b60006110eb826110c0565b9050919050565b6110fb816110e0565b82525050565b600060208201905061111660008301846110f2565b92915050565b7f4e487b7100000000000000000000000000000000000000000000000000000000600052602160045260246000fd5b6002811061115c5761115b61111c565b5b50565b600081905061116d8261114b565b919050565b600061117d8261115f565b9050919050565b61118d81611172565b82525050565b60006020820190506111a86000830184611184565b92915050565b600080fd5b6111bc816110e0565b81146111c757600080fd5b50565b6000813590506111d9816111b3565b92915050565b600080604083850312156111f6576111f56111ae565b5b6000611204858286016111ca565b9250506020611215858286016111ca565b9150509250929050565b6000819050919050565b6112328161121f565b82525050565b600060208201905061124d6000830184611229565b92915050565b7f4f6e6c792073656c6c6572206f72206172626974657200000000000000000000600082015250565b6000611289601683611043565b915061129482611253565b602082019050919050565b600060208201905081810360008301526112b88161127c565b9050919050565b7f496e76616c696420737461746500000000000000000000000000000000000000600082015250565b60006112f5600d83611043565b9150611300826112bf565b602082019050919050565b60006020820190508181036000830152611324816112e8565b9050919050565b7f5265656e7472616e740000000000000000000000000000000000000000000000600082015250565b6000611361600983611043565b915061136c8261132b565b602082019050919050565b6000602082019050818103600083015261139081611354565b9050919050565b7f4e6f2066756e647320746f2072656c6561736500000000000000000000000000600082015250565b60006113cd601383611043565b91506113d882611397565b602082019050919050565b600060208201905081810360008301526113fc816113c0565b9050919050565b600081905092915050565b50565b600061141e600083611403565b91506114298261140e565b600082019050919050565b600061143f82611411565b9150819050919050565b7f526566756e64206661696c656400000000000000000000000000000000000000600082015250565b600061147f600d83611043565b915061148a82611449565b602082019050919050565b600060208201905081810360008301526114ae81611472565b9050919050565b7f41637469766520657363726f7720657869737473000000000000000000000000600082015250565b60006114eb601483611043565b91506114f6826114b5565b602082019050919050565b6000602082019050818103600083015261151a816114de565b9050919050565b7f4f6e6c79206275796572206f7220617262697465720000000000000000000000600082015250565b6000611557601583611043565b915061156282611521565b602082019050919050565b600060208201905081810360008301526115868161154a565b9050919050565b7f5472616e73666572206661696c65640000000000000000000000000000000000600082015250565b60006115c3600f83611043565b91506115ce8261158d565b602082019050919050565b600060208201905081810360008301526115f2816115b6565b9050919050565b7f4d7573742073656e642065746865720000000000000000000000000000000000600082015250565b600061162f600f83611043565b915061163a826115f9565b602082019050919050565b6000602082019050818103600083015261165e81611622565b9050919050565b7f6275796572206e6f742073657400000000000000000000000000000000000000600082015250565b600061169b600d83611043565b91506116a682611665565b602082019050919050565b600060208201905081810360008301526116ca8161168e565b9050919050565b7f53656c6c6572206e6f7420736574000000000000000000000000000000000000600082015250565b6000611707600e83611043565b9150611712826116d1565b602082019050919050565b60006020820190508181036000830152611736816116fa565b9050919050565b7f41726269746572206e6f74207365740000000000000000000000000000000000600082015250565b6000611773600f83611043565b915061177e8261173d565b602082019050919050565b600060208201905081810360008301526117a281611766565b9050919050565b60006040820190506117be60008301856110f2565b6117cb6020830184611229565b939250505056fea26469706673582212203c8cd527014f949cd48c8dcbcd409f5f8be24f25ab6a9bbddb37d8014b6ccb7d64736f6c634300081c0033",
  "linkReferences": {},
  "deployedLinkReferences": {}
}